{
  "contractName": "Vote",
  "abi": [
    {
      "constant": true,
      "inputs": [
        {
          "name": "",
          "type": "uint256"
        }
      ],
      "name": "proposals",
      "outputs": [
        {
          "name": "",
          "type": "bytes32"
        }
      ],
      "payable": false,
      "stateMutability": "view",
      "type": "function"
    },
    {
      "constant": false,
      "inputs": [
        {
          "name": "proposal",
          "type": "bytes32"
        }
      ],
      "name": "addProposal",
      "outputs": [
        {
          "name": "successful",
          "type": "bool"
        }
      ],
      "payable": false,
      "stateMutability": "nonpayable",
      "type": "function"
    },
    {
      "constant": true,
      "inputs": [
        {
          "name": "id",
          "type": "uint256"
        }
      ],
      "name": "returnProposal",
      "outputs": [
        {
          "name": "",
          "type": "bytes32"
        }
      ],
      "payable": false,
      "stateMutability": "view",
      "type": "function"
    },
    {
      "constant": false,
      "inputs": [
        {
          "name": "proposalID",
          "type": "uint256"
        }
      ],
      "name": "removeProposal",
      "outputs": [
        {
          "name": "successful",
          "type": "bool"
        }
      ],
      "payable": false,
      "stateMutability": "nonpayable",
      "type": "function"
    },
    {
      "constant": true,
      "inputs": [
        {
          "name": "",
          "type": "address"
        },
        {
          "name": "proposalID",
          "type": "uint256"
        },
        {
          "name": "vote",
          "type": "uint256"
        }
      ],
      "name": "usableVotes",
      "outputs": [
        {
          "name": "",
          "type": "uint256"
        }
      ],
      "payable": false,
      "stateMutability": "view",
      "type": "function"
    },
    {
      "constant": false,
      "inputs": [
        {
          "name": "voter",
          "type": "address"
        },
        {
          "name": "proposalID",
          "type": "uint256"
        },
        {
          "name": "vote",
          "type": "uint256"
        }
      ],
      "name": "voteFor",
      "outputs": [
        {
          "name": "successful",
          "type": "bool"
        }
      ],
      "payable": false,
      "stateMutability": "nonpayable",
      "type": "function"
    },
    {
      "constant": false,
      "inputs": [
        {
          "name": "voter",
          "type": "address"
        },
        {
          "name": "proposalID",
          "type": "uint256"
        },
        {
          "name": "vote",
          "type": "uint256"
        }
      ],
      "name": "getWinner",
      "outputs": [
        {
          "name": "winner",
          "type": "bytes32"
        }
      ],
      "payable": false,
      "stateMutability": "nonpayable",
      "type": "function"
    },
    {
      "constant": true,
      "inputs": [
        {
          "name": "id",
          "type": "uint256"
        }
      ],
      "name": "returnVotes",
      "outputs": [
        {
          "name": "",
          "type": "uint256"
        }
      ],
      "payable": false,
      "stateMutability": "view",
      "type": "function"
    },
    {
      "constant": true,
      "inputs": [
        {
          "name": "id",
          "type": "uint256"
        },
        {
          "name": "receiver",
          "type": "address"
        },
        {
          "name": "vote",
          "type": "uint256"
        }
      ],
      "name": "getProposalCount",
      "outputs": [
        {
          "name": "",
          "type": "uint256"
        }
      ],
      "payable": false,
      "stateMutability": "view",
      "type": "function"
    },
    {
      "constant": false,
      "inputs": [
        {
          "name": "sender",
          "type": "address"
        },
        {
          "name": "receiver",
          "type": "address"
        },
        {
          "name": "vote",
          "type": "uint256"
        }
      ],
      "name": "transferVote",
      "outputs": [
        {
          "name": "successful",
          "type": "bool"
        }
      ],
      "payable": false,
      "stateMutability": "nonpayable",
      "type": "function"
    },
    {
      "constant": true,
      "inputs": [
        {
          "name": "sender",
          "type": "address"
        },
        {
          "name": "receiver",
          "type": "address"
        },
        {
          "name": "vote",
          "type": "uint256"
        }
      ],
      "name": "proposalCount",
      "outputs": [
        {
          "name": "",
          "type": "uint256"
        }
      ],
      "payable": false,
      "stateMutability": "view",
      "type": "function"
    },
    {
      "inputs": [
        {
          "name": "newOwner",
          "type": "address"
        },
        {
          "name": "setVotingTime",
          "type": "uint256"
        },
        {
          "name": "voters",
          "type": "address[]"
        },
        {
          "name": "tokens",
          "type": "uint256[]"
        }
      ],
      "payable": false,
      "stateMutability": "nonpayable",
      "type": "function",
      "constant": false,
      "name": "transferOwnership",
      "outputs": [
        {
          "name": "",
          "type": "uint256"
        }
      ]
    },
    {
      "inputs": [
        {
          "name": "startingTime",
          "type": "uint256"
        },
        {
          "name": "setVotingTime",
          "type": "uint256"
        },
        {
          "name": "voters",
          "type": "address[]"
        },
        {
          "name": "tokens",
          "type": "uint256[]"
        }
      ],
      "payable": false,
      "stateMutability": "nonpayable",
      "type": "constructor",
      "constant": false,
      "name": "transferOwnership",
      "outputs": []
    },
    {
      "inputs": [
        {
          "name": "startingTime",
          "type": "uint256"
        },
        {
          "name": "setVotingTime",
          "type": "uint256"
        },
        {
          "name": "voters",
          "type": "address[]"
        },
        {
          "name": "tokens",
          "type": "uint256[]"
        }
      ],
      "payable": false,
      "stateMutability": "nonpayable",
      "type": "constructor"
    }
  ],
  "bytecode": "0x6060604052341561000f57600080fd5b604051610a49380380610a4983398101604052808051906020019091908051906020019091908051820191906020018051820191905050600033600460006101000a81548173ffffffffffffffffffffffffffffffffffffffff021916908373ffffffffffffffffffffffffffffffffffffffff1602179055508460058190555083600681905550600090505b82518110156101245781818151811015156100b357fe5b906020019060200201516002600085848151811015156100cf57fe5b9060200190602002015173ffffffffffffffffffffffffffffffffffffffff1673ffffffffffffffffffffffffffffffffffffffff16815260200190815260200160002081905550808060010191505061009c565b5050505050610911806101386000396000f3006060604052600436106100ba576000357c0100000000000000000000000000000000000000000000000000000000900463ffffffff168063013cf08b146100bf57806306efe3b0146100fe5780634835c2b51461013d5780634ce4e6c71461017c578063696e4ca5146101b75780637644bd8f146102045780638e7ea5b2146102675780639154961e14610298578063c08cc02d146102cf578063c1ef8de7146102f8578063da35c66414610371578063f2fde38b1461039a575b600080fd5b34156100ca57600080fd5b6100e060048080359060200190919050506103d3565b60405180826000191660001916815260200191505060405180910390f35b341561010957600080fd5b6101236004808035600019169060200190919050506103eb565b604051808215151515815260200191505060405180910390f35b341561014857600080fd5b61015e6004808035906020019091905050610424565b60405180826000191660001916815260200191505060405180910390f35b341561018757600080fd5b61019d6004808035906020019091905050610440565b604051808215151515815260200191505060405180910390f35b34156101c257600080fd5b6101ee600480803573ffffffffffffffffffffffffffffffffffffffff169060200190919050506104df565b6040518082815260200191505060405180910390f35b341561020f57600080fd5b61024d600480803573ffffffffffffffffffffffffffffffffffffffff169060200190919080359060200190919080359060200190919050506104f7565b604051808215151515815260200191505060405180910390f35b341561027257600080fd5b61027a610624565b60405180826000191660001916815260200191505060405180910390f35b34156102a357600080fd5b6102b96004808035906020019091905050610707565b6040518082815260200191505060405180910390f35b34156102da57600080fd5b6102e2610724565b6040518082815260200191505060405180910390f35b341561030357600080fd5b610357600480803573ffffffffffffffffffffffffffffffffffffffff1690602001909190803573ffffffffffffffffffffffffffffffffffffffff1690602001909190803590602001909190505061072e565b604051808215151515815260200191505060405180910390f35b341561037c57600080fd5b610384610836565b6040518082815260200191505060405180910390f35b34156103a557600080fd5b6103d1600480803573ffffffffffffffffffffffffffffffffffffffff1690602001909190505061083c565b005b60006020528060005260406000206000915090505481565b60008160008060035481526020019081526020016000208160001916905550600160036000828254019250508190555060019050919050565b6000806000838152602001908152602001600020549050919050565b6000604051806000019050604051809103902060001916600080848152602001908152602001600020546040518082600019166000191681526020019150506040518091039020600019161415151561049857600080fd5b600060016000848152602001908152602001600020541415156104ba57600080fd5b6000806000848152602001908152602001600020816000191690555060019050919050565b60026020528060005260406000206000915090505481565b600081600260008673ffffffffffffffffffffffffffffffffffffffff1673ffffffffffffffffffffffffffffffffffffffff168152602001908152602001600020541015610549576000905061061d565b81600260008673ffffffffffffffffffffffffffffffffffffffff1673ffffffffffffffffffffffffffffffffffffffff1681526020019081526020016000205411151561059657600080fd5b61059e610880565b1515156105aa57600080fd5b81600260008673ffffffffffffffffffffffffffffffffffffffff1673ffffffffffffffffffffffffffffffffffffffff16815260200190815260200160002060008282540392505081905550816001600085815260200190815260200160002060008282540192505081905550600190505b9392505050565b600080600080610632610880565b151561063d57600080fd5b6106456108a1565b600090505b6003548110156106ec57604051806000019050604051809103902060001916600080838152602001908152602001600020546040518082600019166000191681526020019150506040518091039020600019161415156106a9576106df565b81600160008381526020019081526020016000205411156106de57600160008281526020019081526020016000205491508092505b5b808060010191505061064a565b60008084815260200190815260200160002054935050505090565b600060016000838152602001908152602001600020549050919050565b6000600354905090565b6000610738610880565b15151561074457600080fd5b81600260008673ffffffffffffffffffffffffffffffffffffffff1673ffffffffffffffffffffffffffffffffffffffff1681526020019081526020016000205411151561079157600080fd5b81600260008673ffffffffffffffffffffffffffffffffffffffff1673ffffffffffffffffffffffffffffffffffffffff1681526020019081526020016000206000828254039250508190555081600260008573ffffffffffffffffffffffffffffffffffffffff1673ffffffffffffffffffffffffffffffffffffffff16815260200190815260200160002060008282540192505081905550600190509392505050565b60035481565b80600460006101000a81548173ffffffffffffffffffffffffffffffffffffffff021916908373ffffffffffffffffffffffffffffffffffffffff16021790555050565b600042600654600554011115610899576001905061089e565b600090505b90565b6000600460006101000a81548173ffffffffffffffffffffffffffffffffffffffff021916908373ffffffffffffffffffffffffffffffffffffffff1602179055505600a165627a7a723058202a0b86aad6642aeed87975b7723e186e80419eddb2066a5645547db24e4150460029",
  "source": "pragma solidity ^ 0.4.8;\r\n\r\ncontract Vote {\r\n    mapping (uint => bytes32) public proposals;\r\n    mapping (uint => uint) votes;\r\n    mapping (address => uint) public usableVotes;\r\n    \r\n\r\n    uint public proposalCount;\r\n    address owner;\r\n\r\n    uint startTime;\r\n    uint votingTime;\r\n\r\n    function Vote(uint startingTime, uint setVotingTime, address[] voters, uint[] tokens) public {\r\n        owner = msg.sender;\r\n        startTime = startingTime;\r\n        votingTime = setVotingTime;\r\n\r\n        for (uint i = 0; i < voters.length; i++) {\r\n            usableVotes[voters[i]] = tokens[i];\r\n        }\r\n    }\r\n\r\n\r\n    function voteFor(address voter,uint proposalID, uint vote) public returns(bool successful) {\r\n        if (usableVotes[voter] < vote) {\r\n            return false;\r\n        }\r\n        require(usableVotes[voter] > vote);\r\n        require(!isOver());\r\n        usableVotes[voter] -= vote;\r\n        votes[proposalID] += vote;\r\n\r\n        return true;\r\n    }\r\n\r\n    function transferVote(address sender, address receiver, uint vote) public returns (bool successful) {\r\n        require(!isOver());\r\n        require(usableVotes[sender] > vote);\r\n\r\n        usableVotes[sender] -= vote;\r\n        usableVotes[receiver] += vote;\r\n        return true;\r\n    }\r\n\r\n    function addProposal(bytes32 proposal) public returns (bool successful) {\r\n        proposals[proposalCount] = proposal;\r\n        proposalCount += 1;\r\n\r\n        return true;\r\n    }\r\n    \r\n    function removeProposal(uint proposalID) public returns (bool successful) {\r\n        require (keccak256(proposals[proposalID]) != keccak256(\"\"));\r\n        require (votes[proposalID] == 0);\r\n\r\n        proposals[proposalID] = \"\";\r\n        return true;\r\n    }\r\n\r\n    function transferOwnership(address newOwner) public {\r\n        owner = newOwner;\r\n    }\r\n\r\n    function removeOwnership() private {\r\n        owner = 0x0;\r\n    }\r\n\r\n    function returnVotes(uint id) constant public returns (uint) {\r\n        return (votes[id]);        \r\n    }\r\n    \r\n    function returnProposal(uint id) constant public returns (bytes32) {\r\n        return (proposals[id]);        \r\n    }\r\n\r\n    function getWinner() public returns (bytes32 winner) {\r\n        require(isOver());\r\n        removeOwnership();\r\n\r\n        uint id;\r\n        uint vote;\r\n\r\n        for (uint i = 0; i < proposalCount; i++) {\r\n            if (keccak256(proposals[i]) != keccak256(\"\")) \r\n                continue;\r\n\r\n            if (votes[i] > vote) {\r\n                vote = votes[i];\r\n                id = i;\r\n            }\r\n        }\r\n\r\n        return proposals[id];\r\n    }\r\n\r\n    function getProposalCount() constant public returns (uint) {\r\n        return proposalCount;\r\n    }\r\n\r\n    function isOver() constant private returns (bool over) {\r\n        if (startTime + votingTime > now) {\r\n            return true;\r\n        }\r\n        return false;\r\n    }\r\n\r\n}\r\n",
  "sourcePath": "D:\\Programming\\Blockchain\\Treble\\contracts\\Vote.sol",
  "compiler": {
    "name": "solc",
    "version": "0.4.18+commit.9cf6e910.Emscripten.clang"
  },
  "schemaVersion": "1.0.1",
  "updatedAt": "2017-11-06T09:18:14.035Z"
}