{
  "contractName": "Vote",
  "abi": [
    {
      "constant": true,
      "inputs": [
        {
          "name": "",
          "type": "uint256"
        }
      ],
      "name": "proposals",
      "outputs": [
        {
          "name": "",
          "type": "bytes32"
        }
      ],
      "payable": false,
      "stateMutability": "view",
      "type": "function"
    },
    {
      "constant": false,
      "inputs": [
        {
          "name": "proposal",
          "type": "bytes32"
        }
      ],
      "name": "addProposal",
      "outputs": [
        {
          "name": "successful",
          "type": "bool"
        }
      ],
      "payable": false,
      "stateMutability": "nonpayable",
      "type": "function"
    },
    {
      "constant": true,
      "inputs": [
        {
          "name": "id",
          "type": "uint256"
        }
      ],
      "name": "returnProposal",
      "outputs": [
        {
          "name": "",
          "type": "bytes32"
        }
      ],
      "payable": false,
      "stateMutability": "view",
      "type": "function"
    },
    {
      "constant": false,
      "inputs": [
        {
          "name": "proposalID",
          "type": "uint256"
        }
      ],
      "name": "removeProposal",
      "outputs": [
        {
          "name": "successful",
          "type": "bool"
        }
      ],
      "payable": false,
      "stateMutability": "nonpayable",
      "type": "function"
    },
    {
      "constant": false,
      "inputs": [
        {
          "name": "voter",
          "type": "address"
        },
        {
          "name": "proposalID",
          "type": "uint256"
        },
        {
          "name": "vote",
          "type": "uint256"
        }
      ],
      "name": "voteFor",
      "outputs": [
        {
          "name": "successful",
          "type": "bool"
        }
      ],
      "payable": false,
      "stateMutability": "nonpayable",
      "type": "function"
    },
    {
      "constant": false,
      "inputs": [],
      "name": "getWinner",
      "outputs": [
        {
          "name": "winner",
          "type": "bytes32"
        }
      ],
      "payable": false,
      "stateMutability": "nonpayable",
      "type": "function"
    },
    {
      "constant": true,
      "inputs": [
        {
          "name": "id",
          "type": "uint256"
        }
      ],
      "name": "returnVotes",
      "outputs": [
        {
          "name": "",
          "type": "uint256"
        }
      ],
      "payable": false,
      "stateMutability": "view",
      "type": "function"
    },
    {
      "constant": true,
      "inputs": [],
      "name": "getProposalCount",
      "outputs": [
        {
          "name": "",
          "type": "uint256"
        }
      ],
      "payable": false,
      "stateMutability": "view",
      "type": "function"
    },
    {
      "constant": false,
      "inputs": [
        {
          "name": "sender",
          "type": "address"
        },
        {
          "name": "receiver",
          "type": "address"
        },
        {
          "name": "vote",
          "type": "uint256"
        }
      ],
      "name": "transferVote",
      "outputs": [
        {
          "name": "successful",
          "type": "bool"
        }
      ],
      "payable": false,
      "stateMutability": "nonpayable",
      "type": "function"
    },
    {
      "constant": true,
      "inputs": [],
      "name": "proposalCount",
      "outputs": [
        {
          "name": "",
          "type": "uint256"
        }
      ],
      "payable": false,
      "stateMutability": "view",
      "type": "function"
    },
    {
      "constant": false,
      "inputs": [
        {
          "name": "newOwner",
          "type": "address"
        }
      ],
      "name": "transferOwnership",
      "outputs": [],
      "payable": false,
      "stateMutability": "nonpayable",
      "type": "function"
    },
    {
      "inputs": [
        {
          "name": "startingTime",
          "type": "uint256"
        },
        {
          "name": "setVotingTime",
          "type": "uint256"
        },
        {
          "name": "voters",
          "type": "address[]"
        },
        {
          "name": "tokens",
          "type": "uint256[]"
        }
      ],
      "payable": false,
      "stateMutability": "nonpayable",
      "type": "constructor"
    }
  ],
  "bytecode": "0x6060604052341561000f57600080fd5b604051610a40380380610a4083398101604052808051906020019091908051906020019091908051820191906020018051820191905050600033600460006101000a81548173ffffffffffffffffffffffffffffffffffffffff021916908373ffffffffffffffffffffffffffffffffffffffff1602179055508460058190555083600681905550600090505b82518110156101245781818151811015156100b357fe5b906020019060200201516002600085848151811015156100cf57fe5b9060200190602002015173ffffffffffffffffffffffffffffffffffffffff1673ffffffffffffffffffffffffffffffffffffffff16815260200190815260200160002081905550808060010191505061009c565b5050505050610908806101386000396000f3006060604052600436106100af576000357c0100000000000000000000000000000000000000000000000000000000900463ffffffff168063013cf08b146100b457806306efe3b0146100f35780634835c2b5146101325780634ce4e6c7146101715780637644bd8f146101ac5780638e7ea5b21461020f5780639154961e14610240578063c08cc02d14610277578063c1ef8de7146102a0578063da35c66414610319578063f2fde38b14610342575b600080fd5b34156100bf57600080fd5b6100d5600480803590602001909190505061037b565b60405180826000191660001916815260200191505060405180910390f35b34156100fe57600080fd5b610118600480803560001916906020019091905050610393565b604051808215151515815260200191505060405180910390f35b341561013d57600080fd5b6101536004808035906020019091905050610428565b60405180826000191660001916815260200191505060405180910390f35b341561017c57600080fd5b6101926004808035906020019091905050610444565b604051808215151515815260200191505060405180910390f35b34156101b757600080fd5b6101f5600480803573ffffffffffffffffffffffffffffffffffffffff1690602001909190803590602001909190803590602001909190505061053f565b604051808215151515815260200191505060405180910390f35b341561021a57600080fd5b61022261061b565b60405180826000191660001916815260200191505060405180910390f35b341561024b57600080fd5b61026160048080359060200190919050506106fe565b6040518082815260200191505060405180910390f35b341561028257600080fd5b61028a61071b565b6040518082815260200191505060405180910390f35b34156102ab57600080fd5b6102ff600480803573ffffffffffffffffffffffffffffffffffffffff1690602001909190803573ffffffffffffffffffffffffffffffffffffffff16906020019091908035906020019091905050610725565b604051808215151515815260200191505060405180910390f35b341561032457600080fd5b61032c61082d565b6040518082815260200191505060405180910390f35b341561034d57600080fd5b610379600480803573ffffffffffffffffffffffffffffffffffffffff16906020019091905050610833565b005b60006020528060005260406000206000915090505481565b60003373ffffffffffffffffffffffffffffffffffffffff16600460009054906101000a900473ffffffffffffffffffffffffffffffffffffffff1673ffffffffffffffffffffffffffffffffffffffff161415156103f157600080fd5b8160008060035481526020019081526020016000208160001916905550600160036000828254019250508190555060019050919050565b6000806000838152602001908152602001600020549050919050565b60003373ffffffffffffffffffffffffffffffffffffffff16600460009054906101000a900473ffffffffffffffffffffffffffffffffffffffff1673ffffffffffffffffffffffffffffffffffffffff161415156104a257600080fd5b60405180600001905060405180910390206000191660008084815260200190815260200160002054604051808260001916600019168152602001915050604051809103902060001916141515156104f857600080fd5b6000600160008481526020019081526020016000205414151561051a57600080fd5b6000806000848152602001908152602001600020816000191690555060019050919050565b600081600260008673ffffffffffffffffffffffffffffffffffffffff1673ffffffffffffffffffffffffffffffffffffffff1681526020019081526020016000205411151561058e57600080fd5b610596610877565b1515156105a257600080fd5b81600260008673ffffffffffffffffffffffffffffffffffffffff1673ffffffffffffffffffffffffffffffffffffffff16815260200190815260200160002060008282540392505081905550816001600085815260200190815260200160002060008282540192505081905550600190509392505050565b600080600080610629610877565b151561063457600080fd5b61063c610898565b600090505b6003548110156106e357604051806000019050604051809103902060001916600080838152602001908152602001600020546040518082600019166000191681526020019150506040518091039020600019161415156106a0576106d6565b81600160008381526020019081526020016000205411156106d557600160008281526020019081526020016000205491508092505b5b8080600101915050610641565b60008084815260200190815260200160002054935050505090565b600060016000838152602001908152602001600020549050919050565b6000600354905090565b600061072f610877565b15151561073b57600080fd5b81600260008673ffffffffffffffffffffffffffffffffffffffff1673ffffffffffffffffffffffffffffffffffffffff1681526020019081526020016000205411151561078857600080fd5b81600260008673ffffffffffffffffffffffffffffffffffffffff1673ffffffffffffffffffffffffffffffffffffffff1681526020019081526020016000206000828254039250508190555081600260008573ffffffffffffffffffffffffffffffffffffffff1673ffffffffffffffffffffffffffffffffffffffff16815260200190815260200160002060008282540192505081905550600190509392505050565b60035481565b80600460006101000a81548173ffffffffffffffffffffffffffffffffffffffff021916908373ffffffffffffffffffffffffffffffffffffffff16021790555050565b6000426006546005540111156108905760019050610895565b600090505b90565b6000600460006101000a81548173ffffffffffffffffffffffffffffffffffffffff021916908373ffffffffffffffffffffffffffffffffffffffff1602179055505600a165627a7a7230582018a02b30db17c855618bc52a6b05491ef7f9cb33f5fd8dc485fa799450241bc90029",
  "source": "pragma solidity ^ 0.4.8;\r\n\r\ncontract Vote {\r\n    mapping (uint => bytes32) public proposals;\r\n    mapping (uint => uint) votes;\r\n    mapping (address => uint) usableVotes;\r\n    \r\n\r\n    uint public proposalCount;\r\n    address owner;\r\n\r\n    uint startTime;\r\n    uint votingTime;\r\n\r\n    function Vote(uint startingTime, uint setVotingTime, address[] voters, uint[] tokens) public {\r\n        owner = msg.sender;\r\n        startTime = startingTime;\r\n        votingTime = setVotingTime;\r\n\r\n        for (uint i = 0; i < voters.length; i++) {\r\n            usableVotes[voters[i]] = tokens[i];\r\n        }\r\n    }\r\n\r\n    function voteFor(address voter,uint proposalID, uint vote) public returns(bool successful) {\r\n        require(usableVotes[voter] > vote);\r\n        require(!isOver());\r\n        usableVotes[voter] -= vote;\r\n        votes[proposalID] += vote;\r\n\r\n        return true;\r\n    }\r\n\r\n    function transferVote(address sender, address receiver, uint vote) public returns (bool successful) {\r\n        require(!isOver());\r\n        require(usableVotes[sender] > vote);\r\n\r\n        usableVotes[sender] -= vote;\r\n        usableVotes[receiver] += vote;\r\n        return true;\r\n    }\r\n\r\n    function addProposal(bytes32 proposal) public returns (bool successful) {\r\n        require (owner == msg.sender);\r\n        proposals[proposalCount] = proposal;\r\n        proposalCount += 1;\r\n\r\n        return true;\r\n    }\r\n    \r\n    function removeProposal(uint proposalID) public returns (bool successful) {\r\n        require (owner == msg.sender);\r\n        require (keccak256(proposals[proposalID]) != keccak256(\"\"));\r\n        require (votes[proposalID] == 0);\r\n\r\n        proposals[proposalID] = \"\";\r\n        return true;\r\n    }\r\n\r\n    function transferOwnership(address newOwner) public {\r\n        owner = newOwner;\r\n    }\r\n\r\n    function removeOwnership() private {\r\n        owner = 0x0;\r\n    }\r\n\r\n    function returnVotes(uint id) constant public returns (uint) {\r\n        return (votes[id]);        \r\n    }\r\n    \r\n    function returnProposal(uint id) constant public returns (bytes32) {\r\n        return (proposals[id]);        \r\n    }\r\n\r\n    function getWinner() public returns (bytes32 winner) {\r\n        require(isOver());\r\n        removeOwnership();\r\n\r\n        uint id;\r\n        uint vote;\r\n\r\n        for (uint i = 0; i < proposalCount; i++) {\r\n            if (keccak256(proposals[i]) != keccak256(\"\")) \r\n                continue;\r\n\r\n            if (votes[i] > vote) {\r\n                vote = votes[i];\r\n                id = i;\r\n            }\r\n        }\r\n\r\n        return proposals[id];\r\n    }\r\n\r\n    function getProposalCount() constant public returns (uint) {\r\n        return proposalCount;\r\n    }\r\n\r\n    function isOver() constant private returns (bool over) {\r\n        if (startTime + votingTime > now) {\r\n            return true;\r\n        }\r\n        return false;\r\n    }\r\n\r\n}\r\n",
  "sourcePath": "D:\\Programming\\Blockchain\\Treble\\contracts\\Vote.sol",
  "compiler": {
    "name": "solc",
    "version": "0.4.18+commit.9cf6e910.Emscripten.clang"
  },
  "schemaVersion": "1.0.1",
  "updatedAt": "2017-11-06T08:20:24.488Z"
}