{
  "contractName": "VotingSystem",
  "abi": [
    {
      "constant": false,
      "inputs": [
        {
          "name": "voteID",
          "type": "uint256"
        },
        {
          "name": "proposalID",
          "type": "uint256"
        },
        {
          "name": "vote",
          "type": "uint256"
        }
      ],
      "name": "voteFor",
      "outputs": [],
      "payable": false,
      "stateMutability": "nonpayable",
      "type": "function"
    },
    {
      "constant": false,
      "inputs": [
        {
          "name": "voteID",
          "type": "uint256"
        },
        {
          "name": "newOwner",
          "type": "address"
        }
      ],
      "name": "transferOwnership",
      "outputs": [],
      "payable": false,
      "stateMutability": "nonpayable",
      "type": "function"
    },
    {
      "constant": false,
      "inputs": [
        {
          "name": "voteID",
          "type": "uint256"
        },
        {
          "name": "proposal",
          "type": "bytes32"
        }
      ],
      "name": "addProposal",
      "outputs": [],
      "payable": false,
      "stateMutability": "nonpayable",
      "type": "function"
    },
    {
      "constant": true,
      "inputs": [
        {
          "name": "voteID",
          "type": "uint256"
        }
      ],
      "name": "getWinner",
      "outputs": [
        {
          "name": "winner",
          "type": "bytes32"
        }
      ],
      "payable": false,
      "stateMutability": "view",
      "type": "function"
    },
    {
      "constant": true,
      "inputs": [
        {
          "name": "voteID",
          "type": "uint256"
        }
      ],
      "name": "getProposalCount",
      "outputs": [
        {
          "name": "count",
          "type": "uint256"
        }
      ],
      "payable": false,
      "stateMutability": "view",
      "type": "function"
    },
    {
      "constant": true,
      "inputs": [
        {
          "name": "voteID",
          "type": "uint256"
        },
        {
          "name": "proposalID",
          "type": "uint256"
        }
      ],
      "name": "returnCurrentVote",
      "outputs": [
        {
          "name": "",
          "type": "bytes32"
        },
        {
          "name": "",
          "type": "uint256"
        }
      ],
      "payable": false,
      "stateMutability": "view",
      "type": "function"
    },
    {
      "constant": true,
      "inputs": [
        {
          "name": "",
          "type": "uint256"
        }
      ],
      "name": "votes",
      "outputs": [
        {
          "name": "",
          "type": "address"
        }
      ],
      "payable": false,
      "stateMutability": "view",
      "type": "function"
    },
    {
      "constant": false,
      "inputs": [
        {
          "name": "votingTime",
          "type": "uint256"
        },
        {
          "name": "voters",
          "type": "address[]"
        },
        {
          "name": "tokens",
          "type": "uint256[]"
        }
      ],
      "name": "newVote",
      "outputs": [
        {
          "name": "voteID",
          "type": "uint256"
        }
      ],
      "payable": false,
      "stateMutability": "nonpayable",
      "type": "function"
    },
    {
      "constant": false,
      "inputs": [
        {
          "name": "voteID",
          "type": "uint256"
        },
        {
          "name": "proposalID",
          "type": "uint256"
        }
      ],
      "name": "removeProposal",
      "outputs": [],
      "payable": false,
      "stateMutability": "nonpayable",
      "type": "function"
    },
    {
      "constant": true,
      "inputs": [
        {
          "name": "voteID",
          "type": "uint256"
        }
      ],
      "name": "returnVotes",
      "outputs": [
        {
          "name": "",
          "type": "uint256[]"
        }
      ],
      "payable": false,
      "stateMutability": "view",
      "type": "function"
    },
    {
      "constant": false,
      "inputs": [
        {
          "name": "voteID",
          "type": "uint256"
        },
        {
          "name": "receiver",
          "type": "address"
        },
        {
          "name": "vote",
          "type": "uint256"
        }
      ],
      "name": "transferVote",
      "outputs": [],
      "payable": false,
      "stateMutability": "nonpayable",
      "type": "function"
    }
  ],
  "bytecode": "0x6060604052341561000f57600080fd5b6119e68061001e6000396000f3006060604052600436106100af576000357c0100000000000000000000000000000000000000000000000000000000900463ffffffff16806314b1c4e6146100b457806329507f73146100e957806336055ba81461012b5780634129b2c91461015b5780634936c0f61461019a57806359dcf843146101d15780635df8133014610220578063633db7b914610283578063653b5b291461033a5780639154961e14610366578063fa74f78a146103de575b600080fd5b34156100bf57600080fd5b6100e76004808035906020019091908035906020019091908035906020019091905050610429565b005b34156100f457600080fd5b610129600480803590602001909190803573ffffffffffffffffffffffffffffffffffffffff1690602001909190505061052f565b005b341561013657600080fd5b610159600480803590602001909190803560001916906020019091905050610613565b005b341561016657600080fd5b61017c60048080359060200190919050506106e4565b60405180826000191660001916815260200191505060405180910390f35b34156101a557600080fd5b6101bb60048080359060200190919050506107a6565b6040518082815260200191505060405180910390f35b34156101dc57600080fd5b6101fb6004808035906020019091908035906020019091905050610868565b6040518083600019166000191681526020018281526020019250505060405180910390f35b341561022b57600080fd5b61024160048080359060200190919050506109fe565b604051808273ffffffffffffffffffffffffffffffffffffffff1673ffffffffffffffffffffffffffffffffffffffff16815260200191505060405180910390f35b341561028e57600080fd5b61032460048080359060200190919080359060200190820180359060200190808060200260200160405190810160405280939291908181526020018383602002808284378201915050505050509190803590602001908201803590602001908080602002602001604051908101604052809392919081815260200183836020028082843782019150505050505091905050610a31565b6040518082815260200191505060405180910390f35b341561034557600080fd5b6103646004808035906020019091908035906020019091905050610b66565b005b341561037157600080fd5b6103876004808035906020019091905050610c2f565b6040518080602001828103825283818151815260200191508051906020019060200280838360005b838110156103ca5780820151818401526020810190506103af565b505050509050019250505060405180910390f35b34156103e957600080fd5b610427600480803590602001909190803573ffffffffffffffffffffffffffffffffffffffff16906020019091908035906020019091905050610e24565b005b60008084815260200190815260200160002060009054906101000a900473ffffffffffffffffffffffffffffffffffffffff1673ffffffffffffffffffffffffffffffffffffffff16637644bd8f3384846000604051602001526040518463ffffffff167c0100000000000000000000000000000000000000000000000000000000028152600401808473ffffffffffffffffffffffffffffffffffffffff1673ffffffffffffffffffffffffffffffffffffffff1681526020018381526020018281526020019350505050602060405180830381600087803b151561050e57600080fd5b6102c65a03f1151561051f57600080fd5b5050506040518051905050505050565b60008083815260200190815260200160002060009054906101000a900473ffffffffffffffffffffffffffffffffffffffff1673ffffffffffffffffffffffffffffffffffffffff1663f2fde38b826040518263ffffffff167c0100000000000000000000000000000000000000000000000000000000028152600401808273ffffffffffffffffffffffffffffffffffffffff1673ffffffffffffffffffffffffffffffffffffffff168152602001915050600060405180830381600087803b15156105fb57600080fd5b6102c65a03f1151561060c57600080fd5b5050505050565b60008083815260200190815260200160002060009054906101000a900473ffffffffffffffffffffffffffffffffffffffff1673ffffffffffffffffffffffffffffffffffffffff166306efe3b0826000604051602001526040518263ffffffff167c0100000000000000000000000000000000000000000000000000000000028152600401808260001916600019168152602001915050602060405180830381600087803b15156106c457600080fd5b6102c65a03f115156106d557600080fd5b50505060405180519050505050565b600080600083815260200190815260200160002060009054906101000a900473ffffffffffffffffffffffffffffffffffffffff1673ffffffffffffffffffffffffffffffffffffffff16638e7ea5b26000604051602001526040518163ffffffff167c0100000000000000000000000000000000000000000000000000000000028152600401602060405180830381600087803b151561078457600080fd5b6102c65a03f1151561079557600080fd5b505050604051805190509050919050565b600080600083815260200190815260200160002060009054906101000a900473ffffffffffffffffffffffffffffffffffffffff1673ffffffffffffffffffffffffffffffffffffffff1663c08cc02d6000604051602001526040518163ffffffff167c0100000000000000000000000000000000000000000000000000000000028152600401602060405180830381600087803b151561084657600080fd5b6102c65a03f1151561085757600080fd5b505050604051805190509050919050565b60008060008085815260200190815260200160002060009054906101000a900473ffffffffffffffffffffffffffffffffffffffff1673ffffffffffffffffffffffffffffffffffffffff16634835c2b5846000604051602001526040518263ffffffff167c010000000000000000000000000000000000000000000000000000000002815260040180828152602001915050602060405180830381600087803b151561091457600080fd5b6102c65a03f1151561092557600080fd5b5050506040518051905060008086815260200190815260200160002060009054906101000a900473ffffffffffffffffffffffffffffffffffffffff1673ffffffffffffffffffffffffffffffffffffffff16639154961e856000604051602001526040518263ffffffff167c010000000000000000000000000000000000000000000000000000000002815260040180828152602001915050602060405180830381600087803b15156109d857600080fd5b6102c65a03f115156109e957600080fd5b50505060405180519050915091509250929050565b60006020528060005260406000206000915054906101000a900473ffffffffffffffffffffffffffffffffffffffff1681565b600042848484610a3f610f56565b808581526020018481526020018060200180602001838103835285818151815260200191508051906020019060200280838360005b83811015610a8f578082015181840152602081019050610a74565b50505050905001838103825284818151815260200191508051906020019060200280838360005b83811015610ad1578082015181840152602081019050610ab6565b505050509050019650505050505050604051809103906000f0801515610af657600080fd5b600080600154815260200190815260200160002060006101000a81548173ffffffffffffffffffffffffffffffffffffffff021916908373ffffffffffffffffffffffffffffffffffffffff16021790555060018060008282540192505081905550600180540390509392505050565b60008083815260200190815260200160002060009054906101000a900473ffffffffffffffffffffffffffffffffffffffff1673ffffffffffffffffffffffffffffffffffffffff16634ce4e6c7826000604051602001526040518263ffffffff167c010000000000000000000000000000000000000000000000000000000002815260040180828152602001915050602060405180830381600087803b1515610c0f57600080fd5b6102c65a03f11515610c2057600080fd5b50505060405180519050505050565b610c37610f66565b6000610c41610f66565b600080600086815260200190815260200160002060009054906101000a900473ffffffffffffffffffffffffffffffffffffffff1673ffffffffffffffffffffffffffffffffffffffff1663c08cc02d6000604051602001526040518163ffffffff167c0100000000000000000000000000000000000000000000000000000000028152600401602060405180830381600087803b1515610ce157600080fd5b6102c65a03f11515610cf257600080fd5b50505060405180519050925082604051805910610d0c5750595b90808252806020026020018201604052509150600090505b82811015610e195760008086815260200190815260200160002060009054906101000a900473ffffffffffffffffffffffffffffffffffffffff1673ffffffffffffffffffffffffffffffffffffffff16639154961e826000604051602001526040518263ffffffff167c010000000000000000000000000000000000000000000000000000000002815260040180828152602001915050602060405180830381600087803b1515610dd557600080fd5b6102c65a03f11515610de657600080fd5b505050604051805190508282815181101515610dfe57fe5b90602001906020020181815250508080600101915050610d24565b819350505050919050565b60008084815260200190815260200160002060009054906101000a900473ffffffffffffffffffffffffffffffffffffffff1673ffffffffffffffffffffffffffffffffffffffff1663c1ef8de73384846000604051602001526040518463ffffffff167c0100000000000000000000000000000000000000000000000000000000028152600401808473ffffffffffffffffffffffffffffffffffffffff1673ffffffffffffffffffffffffffffffffffffffff1681526020018373ffffffffffffffffffffffffffffffffffffffff1673ffffffffffffffffffffffffffffffffffffffff1681526020018281526020019350505050602060405180830381600087803b1515610f3557600080fd5b6102c65a03f11515610f4657600080fd5b5050506040518051905050505050565b604051610a4080610f7b83390190565b60206040519081016040528060008152509056006060604052341561000f57600080fd5b604051610a40380380610a4083398101604052808051906020019091908051906020019091908051820191906020018051820191905050600033600460006101000a81548173ffffffffffffffffffffffffffffffffffffffff021916908373ffffffffffffffffffffffffffffffffffffffff1602179055508460058190555083600681905550600090505b82518110156101245781818151811015156100b357fe5b906020019060200201516002600085848151811015156100cf57fe5b9060200190602002015173ffffffffffffffffffffffffffffffffffffffff1673ffffffffffffffffffffffffffffffffffffffff16815260200190815260200160002081905550808060010191505061009c565b5050505050610908806101386000396000f3006060604052600436106100af576000357c0100000000000000000000000000000000000000000000000000000000900463ffffffff168063013cf08b146100b457806306efe3b0146100f35780634835c2b5146101325780634ce4e6c7146101715780637644bd8f146101ac5780638e7ea5b21461020f5780639154961e14610240578063c08cc02d14610277578063c1ef8de7146102a0578063da35c66414610319578063f2fde38b14610342575b600080fd5b34156100bf57600080fd5b6100d5600480803590602001909190505061037b565b60405180826000191660001916815260200191505060405180910390f35b34156100fe57600080fd5b610118600480803560001916906020019091905050610393565b604051808215151515815260200191505060405180910390f35b341561013d57600080fd5b6101536004808035906020019091905050610428565b60405180826000191660001916815260200191505060405180910390f35b341561017c57600080fd5b6101926004808035906020019091905050610444565b604051808215151515815260200191505060405180910390f35b34156101b757600080fd5b6101f5600480803573ffffffffffffffffffffffffffffffffffffffff1690602001909190803590602001909190803590602001909190505061053f565b604051808215151515815260200191505060405180910390f35b341561021a57600080fd5b61022261061b565b60405180826000191660001916815260200191505060405180910390f35b341561024b57600080fd5b61026160048080359060200190919050506106fe565b6040518082815260200191505060405180910390f35b341561028257600080fd5b61028a61071b565b6040518082815260200191505060405180910390f35b34156102ab57600080fd5b6102ff600480803573ffffffffffffffffffffffffffffffffffffffff1690602001909190803573ffffffffffffffffffffffffffffffffffffffff16906020019091908035906020019091905050610725565b604051808215151515815260200191505060405180910390f35b341561032457600080fd5b61032c61082d565b6040518082815260200191505060405180910390f35b341561034d57600080fd5b610379600480803573ffffffffffffffffffffffffffffffffffffffff16906020019091905050610833565b005b60006020528060005260406000206000915090505481565b60003373ffffffffffffffffffffffffffffffffffffffff16600460009054906101000a900473ffffffffffffffffffffffffffffffffffffffff1673ffffffffffffffffffffffffffffffffffffffff161415156103f157600080fd5b8160008060035481526020019081526020016000208160001916905550600160036000828254019250508190555060019050919050565b6000806000838152602001908152602001600020549050919050565b60003373ffffffffffffffffffffffffffffffffffffffff16600460009054906101000a900473ffffffffffffffffffffffffffffffffffffffff1673ffffffffffffffffffffffffffffffffffffffff161415156104a257600080fd5b60405180600001905060405180910390206000191660008084815260200190815260200160002054604051808260001916600019168152602001915050604051809103902060001916141515156104f857600080fd5b6000600160008481526020019081526020016000205414151561051a57600080fd5b6000806000848152602001908152602001600020816000191690555060019050919050565b600081600260008673ffffffffffffffffffffffffffffffffffffffff1673ffffffffffffffffffffffffffffffffffffffff1681526020019081526020016000205411151561058e57600080fd5b610596610877565b1515156105a257600080fd5b81600260008673ffffffffffffffffffffffffffffffffffffffff1673ffffffffffffffffffffffffffffffffffffffff16815260200190815260200160002060008282540392505081905550816001600085815260200190815260200160002060008282540192505081905550600190509392505050565b600080600080610629610877565b151561063457600080fd5b61063c610898565b600090505b6003548110156106e357604051806000019050604051809103902060001916600080838152602001908152602001600020546040518082600019166000191681526020019150506040518091039020600019161415156106a0576106d6565b81600160008381526020019081526020016000205411156106d557600160008281526020019081526020016000205491508092505b5b8080600101915050610641565b60008084815260200190815260200160002054935050505090565b600060016000838152602001908152602001600020549050919050565b6000600354905090565b600061072f610877565b15151561073b57600080fd5b81600260008673ffffffffffffffffffffffffffffffffffffffff1673ffffffffffffffffffffffffffffffffffffffff1681526020019081526020016000205411151561078857600080fd5b81600260008673ffffffffffffffffffffffffffffffffffffffff1673ffffffffffffffffffffffffffffffffffffffff1681526020019081526020016000206000828254039250508190555081600260008573ffffffffffffffffffffffffffffffffffffffff1673ffffffffffffffffffffffffffffffffffffffff16815260200190815260200160002060008282540192505081905550600190509392505050565b60035481565b80600460006101000a81548173ffffffffffffffffffffffffffffffffffffffff021916908373ffffffffffffffffffffffffffffffffffffffff16021790555050565b6000426006546005540111156108905760019050610895565b600090505b90565b6000600460006101000a81548173ffffffffffffffffffffffffffffffffffffffff021916908373ffffffffffffffffffffffffffffffffffffffff1602179055505600a165627a7a72305820a0365b20d67b7d38d9e5345eff3021c2cb283bd3e8cdad4e6921a2373f42be300029a165627a7a723058204007da88f48c0767a2fab648e95e74134ffbd5b85fe1d92c32c6b635bd5c60240029",
  "source": "pragma solidity ^ 0.4.8;\r\n\r\n// Voting system for TREBLE for estate management and issues.\r\n\r\n\r\ncontract Vote {\r\n    mapping (uint => bytes32) public proposals;\r\n    mapping (uint => uint) votes;\r\n    mapping (address => uint) usableVotes;\r\n    \r\n\r\n    uint public proposalCount;\r\n    address owner;\r\n\r\n    uint startTime;\r\n    uint votingTime;\r\n\r\n    function Vote(uint startingTime, uint setVotingTime, address[] voters, uint[] tokens) public {\r\n        owner = msg.sender;\r\n        startTime = startingTime;\r\n        votingTime = setVotingTime;\r\n\r\n        for (uint i = 0; i < voters.length; i++) {\r\n            usableVotes[voters[i]] = tokens[i];\r\n        }\r\n    }\r\n\r\n    function voteFor(address voter,uint proposalID, uint vote) public returns(bool successful) {\r\n        require(usableVotes[voter] > vote);\r\n        require(!isOver());\r\n        usableVotes[voter] -= vote;\r\n        votes[proposalID] += vote;\r\n\r\n        return true;\r\n    }\r\n\r\n    function transferVote(address sender, address receiver, uint vote) public returns (bool successful) {\r\n        require(!isOver());\r\n        require(usableVotes[sender] > vote);\r\n\r\n        usableVotes[sender] -= vote;\r\n        usableVotes[receiver] += vote;\r\n        return true;\r\n    }\r\n\r\n    function addProposal(bytes32 proposal) public returns (bool successful) {\r\n        require (owner == msg.sender);\r\n        proposals[proposalCount] = proposal;\r\n        proposalCount += 1;\r\n\r\n        return true;\r\n    }\r\n    \r\n    function removeProposal(uint proposalID) public returns (bool successful) {\r\n        require (owner == msg.sender);\r\n        require (keccak256(proposals[proposalID]) != keccak256(\"\"));\r\n        require (votes[proposalID] == 0);\r\n\r\n        proposals[proposalID] = \"\";\r\n        return true;\r\n    }\r\n\r\n    function transferOwnership(address newOwner) public {\r\n        owner = newOwner;\r\n    }\r\n\r\n    function removeOwnership() private {\r\n        owner = 0x0;\r\n    }\r\n\r\n    function returnVotes(uint id) constant public returns (uint) {\r\n        return (votes[id]);        \r\n    }\r\n    \r\n    function returnProposal(uint id) constant public returns (bytes32) {\r\n        return (proposals[id]);        \r\n    }\r\n\r\n    function getWinner() constant public returns (bytes32 winner) {\r\n        require(isOver());\r\n        removeOwnership();\r\n\r\n        uint id;\r\n        uint vote;\r\n\r\n        for (uint i = 0; i < proposalCount; i++) {\r\n            if (keccak256(proposals[i]) != keccak256(\"\")) \r\n                continue;\r\n\r\n            if (votes[i] > vote) {\r\n                vote = votes[i];\r\n                id = i;\r\n            }\r\n        }\r\n\r\n        return proposals[id];\r\n    }\r\n\r\n    function getProposalCount() constant public returns (uint) {\r\n        return proposalCount;\r\n    }\r\n\r\n    function isOver() constant private returns (bool over) {\r\n        if (startTime + votingTime > now) {\r\n            return true;\r\n        }\r\n        return false;\r\n    }\r\n\r\n}\r\n\r\n\r\ncontract VotingSystem {\r\n    mapping (uint => Vote) public votes;\r\n    uint voteCount;\r\n\r\n    function newVote(uint votingTime, address[] voters, uint[] tokens) public returns (uint voteID) {\r\n        votes[voteCount] = new Vote(now, votingTime, voters, tokens);\r\n        voteCount += 1;\r\n\r\n        return voteCount - 1;\r\n    }\r\n\r\n    function voteFor(uint voteID, uint proposalID, uint vote) public {\r\n        votes[voteID].voteFor(msg.sender, proposalID, vote);\r\n    }\r\n\r\n    function transferVote(uint voteID, address receiver, uint vote) public {\r\n        votes[voteID].transferVote(msg.sender, receiver, vote);\r\n    }\r\n\r\n    function addProposal(uint voteID, bytes32 proposal) public {\r\n        votes[voteID].addProposal(proposal);\r\n    }\r\n\r\n    function removeProposal(uint voteID, uint proposalID) public {\r\n        votes[voteID].removeProposal(proposalID);\r\n    }\r\n\r\n    function transferOwnership(uint voteID, address newOwner) public {\r\n        votes[voteID].transferOwnership(newOwner);\r\n    }\r\n\r\n    function returnVotes(uint voteID) constant public returns (uint[]) {\r\n        var proposalCount = votes[voteID].getProposalCount();\r\n        var results = new uint[](proposalCount);\r\n        for (uint i = 0; i < proposalCount; i++) {\r\n            results[i] = votes[voteID].returnVotes(i);\r\n        }\r\n        return results;\r\n    }\r\n\r\n    function returnCurrentVote(uint voteID, uint proposalID) constant public returns (bytes32, uint) {\r\n        return (votes[voteID].returnProposal(proposalID), votes[voteID].returnVotes(proposalID));\r\n    }\r\n\r\n    function getWinner(uint voteID) constant public returns (bytes32 winner) {\r\n        return votes[voteID].getWinner();\r\n    }\r\n\r\n    function getProposalCount(uint voteID) constant returns (uint count) {\r\n        return votes[voteID].getProposalCount();\r\n    }\r\n\r\n\r\n}",
  "sourcePath": "D:\\Programming\\Blockchain\\Treble\\contracts\\VotingSystem.sol",
  "compiler": {
    "name": "solc",
    "version": "0.4.18+commit.9cf6e910.Emscripten.clang"
  },
  "schemaVersion": "1.0.1",
  "updatedAt": "2017-11-06T08:20:24.488Z"
}